:100000000C945D000C947A000C947A000C947A00A5
:100010000C947A000C947A000C947A000C947A0078
:100020000C947A000C947A000C947A000C947A0068
:100030000C947A000C947A000C947A000C947A0058
:100040000C94EF000C947A000C947A000C947A00D3
:100050000C947A000C947A000C947A000C947A0038
:100060000C947A000C947A00000000080002010051
:100070000003040700000000000000000000000072
:10008000250028002B0000000000240027002A0083
:10009000040404040404040402020202020203032E
:1000A0000303030301020408102040800102040836
:1000B0001020010204081020F70111241FBECFEF09
:1000C000D8E0DEBFCDBF21E0A0E0B1E001C01D92CD
:1000D000A731B207E1F710E0CDE5D0E004C02197E9
:1000E000FE010E940F02CC35D107C9F70E943901E9
:1000F0000C9415020C94000090E0FC01EC55FF4FAD
:100100002491FC01E057FF4F8491882399F090E0FF
:10011000880F991FFC01EA57FF4FA591B491FC018C
:10012000E458FF4F859194918FB7F894EC91E22BAE
:10013000EC938FBF089590E0FC01E859FF4F2491A4
:10014000FC01EC55FF4F3491FC01E057FF4FE49167
:10015000EE2309F43CC0222339F1233091F038F426
:100160002130A9F0223001F584B58F7D12C02730EF
:1001700091F02830A1F02430B9F4809180008F7D77
:1001800003C0809180008F77809380000DC084B57C
:100190008F7784BD09C08091B0008F7703C08091B4
:1001A000B0008F7D8093B000F0E0EE0FFF1FE458A9
:1001B000FF4FA591B4919FB7F894611104C08C9141
:1001C0003095382302C0EC913E2B3C939FBF08959D
:1001D0008EBD00000DB407FEFDCF8EB508951F92B1
:1001E0000F920FB60F9211242F933F938F939F93EB
:1001F000AF93BF938091060190910701A0910801F0
:10020000B09109013091050123E0230F2D3720F42F
:100210000196A11DB11D05C026E8230F0296A11D60
:10022000B11D209305018093060190930701A093CF
:100230000801B09309018091010190910201A09100
:100240000301B09104010196A11DB11D809301012C
:1002500090930201A0930301B0930401BF91AF9169
:100260009F918F913F912F910F900FBE0F901F90F4
:100270001895789484B5826084BD84B5816084BD0E
:1002800085B5826085BD85B5816085BD80916E0034
:10029000816080936E001092810080918100826065
:1002A00080938100809181008160809381008091A2
:1002B00080008160809380008091B1008460809391
:1002C000B1008091B00081608093B00080917A008D
:1002D000846080937A0080917A00826080937A00B3
:1002E00080917A00816080937A0080917A008068A2
:1002F00080937A001092C10087E00E947C00809178
:100300000B010E947C0061E080910B010E949B0028
:10031000CFB7F89480910A01811124C0EAE9F0E096
:100320008491EEEAF0E09491E82FF0E0EE0FFF1FE9
:10033000EA57FF4FA591B491EC91E92321F461E0D4
:100340008AE00E949B008AE00E947C008CB580615C
:100350008CBD8CB580648CBD8DE00E947C008BE0F0
:100360000E947C0080910A018F5F80930A01CFBFB9
:1003700080E580930C0181E080930D0100E010E0A6
:1003800060E0809110010E949B0087E00E94E800DD
:1003900080EC0E94E8008F70F82E80E00E94E80058
:1003A000E82E61E0809110010E949B00E70160E06F
:1003B00080910B010E949B0090910C0180910D0196
:1003C0009CBD8DBDCE0188279F70892F80630E94C0
:1003D000E8008C2F0E94E80061E080910B010E94F0
:1003E0009B000115110561F20E940000C9CFEEE0EB
:1003F000F1E088E893E19183808387E08283138230
:1004000014821582168280E091E090878783EBE06A
:10041000F1E080E58183128285E080830895EE0F0C
:0E042000FF1F0590F491E02D0994F894FFCF92
:00000001FF
